{
    "_format": "hh-sol-artifact-1",
    "contractName": "IdentityManagement",
    "sourceName": "contracts/IdentityManagement.sol",
    "abi": [
        {
            "inputs": [
                {
                    "internalType": "address",
                    "name": "target",
                    "type": "address"
                }
            ],
            "name": "AddressEmptyCode",
            "type": "error"
        },
        {
            "inputs": [
                {
                    "internalType": "address",
                    "name": "implementation",
                    "type": "address"
                }
            ],
            "name": "ERC1967InvalidImplementation",
            "type": "error"
        },
        {
            "inputs": [],
            "name": "ERC1967NonPayable",
            "type": "error"
        },
        {
            "inputs": [],
            "name": "FailedInnerCall",
            "type": "error"
        },
        {
            "inputs": [],
            "name": "InvalidInitialization",
            "type": "error"
        },
        {
            "inputs": [],
            "name": "NotInitializing",
            "type": "error"
        },
        {
            "inputs": [
                {
                    "internalType": "address",
                    "name": "owner",
                    "type": "address"
                }
            ],
            "name": "OwnableInvalidOwner",
            "type": "error"
        },
        {
            "inputs": [
                {
                    "internalType": "address",
                    "name": "account",
                    "type": "address"
                }
            ],
            "name": "OwnableUnauthorizedAccount",
            "type": "error"
        },
        {
            "inputs": [],
            "name": "UUPSUnauthorizedCallContext",
            "type": "error"
        },
        {
            "inputs": [
                {
                    "internalType": "bytes32",
                    "name": "slot",
                    "type": "bytes32"
                }
            ],
            "name": "UUPSUnsupportedProxiableUUID",
            "type": "error"
        },
        {
            "anonymous": false,
            "inputs": [
                {
                    "indexed": false,
                    "internalType": "uint64",
                    "name": "version",
                    "type": "uint64"
                }
            ],
            "name": "Initialized",
            "type": "event"
        },
        {
            "anonymous": false,
            "inputs": [
                {
                    "indexed": true,
                    "internalType": "address",
                    "name": "previousOwner",
                    "type": "address"
                },
                {
                    "indexed": true,
                    "internalType": "address",
                    "name": "newOwner",
                    "type": "address"
                }
            ],
            "name": "OwnershipTransferred",
            "type": "event"
        },
        {
            "anonymous": false,
            "inputs": [
                {
                    "indexed": true,
                    "internalType": "address",
                    "name": "userAddress",
                    "type": "address"
                },
                {
                    "indexed": false,
                    "internalType": "uint256",
                    "name": "sid",
                    "type": "uint256"
                }
            ],
            "name": "SidRegistered",
            "type": "event"
        },
        {
            "anonymous": false,
            "inputs": [
                {
                    "indexed": true,
                    "internalType": "uint256",
                    "name": "sid",
                    "type": "uint256"
                },
                {
                    "indexed": true,
                    "internalType": "address",
                    "name": "oldAddress",
                    "type": "address"
                },
                {
                    "indexed": true,
                    "internalType": "address",
                    "name": "newAddress",
                    "type": "address"
                }
            ],
            "name": "SidTransferred",
            "type": "event"
        },
        {
            "anonymous": false,
            "inputs": [
                {
                    "indexed": true,
                    "internalType": "address",
                    "name": "implementation",
                    "type": "address"
                }
            ],
            "name": "Upgraded",
            "type": "event"
        },
        {
            "inputs": [],
            "name": "UPGRADE_INTERFACE_VERSION",
            "outputs": [
                {
                    "internalType": "string",
                    "name": "",
                    "type": "string"
                }
            ],
            "stateMutability": "view",
            "type": "function"
        },
        {
            "inputs": [
                {
                    "internalType": "uint256",
                    "name": "sid",
                    "type": "uint256"
                }
            ],
            "name": "getAddress",
            "outputs": [
                {
                    "internalType": "address",
                    "name": "",
                    "type": "address"
                }
            ],
            "stateMutability": "view",
            "type": "function"
        },
        {
            "inputs": [
                {
                    "internalType": "address",
                    "name": "userAddress",
                    "type": "address"
                }
            ],
            "name": "getSid",
            "outputs": [
                {
                    "internalType": "uint256",
                    "name": "",
                    "type": "uint256"
                }
            ],
            "stateMutability": "view",
            "type": "function"
        },
        {
            "inputs": [
                {
                    "internalType": "address",
                    "name": "initialOwner",
                    "type": "address"
                }
            ],
            "name": "initialize",
            "outputs": [],
            "stateMutability": "nonpayable",
            "type": "function"
        },
        {
            "inputs": [],
            "name": "owner",
            "outputs": [
                {
                    "internalType": "address",
                    "name": "",
                    "type": "address"
                }
            ],
            "stateMutability": "view",
            "type": "function"
        },
        {
            "inputs": [],
            "name": "proxiableUUID",
            "outputs": [
                {
                    "internalType": "bytes32",
                    "name": "",
                    "type": "bytes32"
                }
            ],
            "stateMutability": "view",
            "type": "function"
        },
        {
            "inputs": [],
            "name": "register",
            "outputs": [],
            "stateMutability": "nonpayable",
            "type": "function"
        },
        {
            "inputs": [],
            "name": "renounceOwnership",
            "outputs": [],
            "stateMutability": "nonpayable",
            "type": "function"
        },
        {
            "inputs": [
                {
                    "internalType": "address",
                    "name": "newOwner",
                    "type": "address"
                }
            ],
            "name": "transferOwnership",
            "outputs": [],
            "stateMutability": "nonpayable",
            "type": "function"
        },
        {
            "inputs": [
                {
                    "internalType": "address",
                    "name": "newAddress",
                    "type": "address"
                }
            ],
            "name": "transferSid",
            "outputs": [],
            "stateMutability": "nonpayable",
            "type": "function"
        },
        {
            "inputs": [
                {
                    "internalType": "address",
                    "name": "newImplementation",
                    "type": "address"
                },
                {
                    "internalType": "bytes",
                    "name": "data",
                    "type": "bytes"
                }
            ],
            "name": "upgradeToAndCall",
            "outputs": [],
            "stateMutability": "payable",
            "type": "function"
        }
    ],
    "bytecode": "0x60a06040523073ffffffffffffffffffffffffffffffffffffffff1660809073ffffffffffffffffffffffffffffffffffffffff1681525034801561004357600080fd5b5060805161191161006d600039600081816109a3015281816109f80152610bb301526119116000f3fe60806040526004361061009c5760003560e01c8063715018a611610064578063715018a6146101655780638da5cb5b1461017c578063ad3cb1cc146101a7578063b93f9b0a146101d2578063c4d66de81461020f578063f2fde38b146102385761009c565b806309304bb2146100a1578063162d9e73146100ca5780631aa3a008146101075780634f1ef2861461011e57806352d1902d1461013a575b600080fd5b3480156100ad57600080fd5b506100c860048036038101906100c3919061129a565b610261565b005b3480156100d657600080fd5b506100f160048036038101906100ec919061129a565b61049e565b6040516100fe91906112e0565b60405180910390f35b34801561011357600080fd5b5061011c6104e6565b005b61013860048036038101906101339190611441565b610668565b005b34801561014657600080fd5b5061014f610687565b60405161015c91906114b6565b60405180910390f35b34801561017157600080fd5b5061017a6106ba565b005b34801561018857600080fd5b506101916106ce565b60405161019e91906114e0565b60405180910390f35b3480156101b357600080fd5b506101bc610706565b6040516101c9919061157a565b60405180910390f35b3480156101de57600080fd5b506101f960048036038101906101f491906115c8565b61073f565b60405161020691906114e0565b60405180910390f35b34801561021b57600080fd5b506102366004803603810190610231919061129a565b61077c565b005b34801561024457600080fd5b5061025f600480360381019061025a919061129a565b61091b565b005b60008060003373ffffffffffffffffffffffffffffffffffffffff1673ffffffffffffffffffffffffffffffffffffffff168152602001908152602001600020549050600081036102e7576040517f08c379a00000000000000000000000000000000000000000000000000000000081526004016102de90611641565b60405180910390fd5b60008060008473ffffffffffffffffffffffffffffffffffffffff1673ffffffffffffffffffffffffffffffffffffffff1681526020019081526020016000205414610368576040517f08c379a000000000000000000000000000000000000000000000000000000000815260040161035f906116ad565b60405180910390fd5b806000808473ffffffffffffffffffffffffffffffffffffffff1673ffffffffffffffffffffffffffffffffffffffff16815260200190815260200160002081905550816001600083815260200190815260200160002060006101000a81548173ffffffffffffffffffffffffffffffffffffffff021916908373ffffffffffffffffffffffffffffffffffffffff1602179055506000803373ffffffffffffffffffffffffffffffffffffffff1673ffffffffffffffffffffffffffffffffffffffff168152602001908152602001600020600090558173ffffffffffffffffffffffffffffffffffffffff163373ffffffffffffffffffffffffffffffffffffffff16827fef9f1ba672c86a25daee6fcbfd730e4ee67d5c3290c9931cf95c6f19f9d8b43f60405160405180910390a45050565b60008060008373ffffffffffffffffffffffffffffffffffffffff1673ffffffffffffffffffffffffffffffffffffffff168152602001908152602001600020549050919050565b60008060003373ffffffffffffffffffffffffffffffffffffffff1673ffffffffffffffffffffffffffffffffffffffff1681526020019081526020016000205414610567576040517f08c379a000000000000000000000000000000000000000000000000000000000815260040161055e90611719565b60405180910390fd5b60006002600081548092919061057c90611768565b919050559050806000803373ffffffffffffffffffffffffffffffffffffffff1673ffffffffffffffffffffffffffffffffffffffff16815260200190815260200160002081905550336001600083815260200190815260200160002060006101000a81548173ffffffffffffffffffffffffffffffffffffffff021916908373ffffffffffffffffffffffffffffffffffffffff1602179055503373ffffffffffffffffffffffffffffffffffffffff167f9e54bb3571391a67f5cf323331b9e22b1daacc77ccaa49f7413ccdcc71db6f168260405161065d91906112e0565b60405180910390a250565b6106706109a1565b61067982610a87565b6106838282610a92565b5050565b6000610691610bb1565b7f360894a13ba1a3210667c828492db98dca3e2076cc3735a920a3ca505d382bbc60001b905090565b6106c2610c38565b6106cc6000610cbf565b565b6000806106d9610d96565b90508060000160009054906101000a900473ffffffffffffffffffffffffffffffffffffffff1691505090565b6040518060400160405280600581526020017f352e302e3000000000000000000000000000000000000000000000000000000081525081565b60006001600083815260200190815260200160002060009054906101000a900473ffffffffffffffffffffffffffffffffffffffff169050919050565b6000610786610dbe565b905060008160000160089054906101000a900460ff1615905060008260000160009054906101000a900467ffffffffffffffff1690506000808267ffffffffffffffff161480156107d45750825b9050600060018367ffffffffffffffff16148015610809575060003073ffffffffffffffffffffffffffffffffffffffff163b145b905081158015610817575080155b1561084e576040517ff92ee8a900000000000000000000000000000000000000000000000000000000815260040160405180910390fd5b60018560000160006101000a81548167ffffffffffffffff021916908367ffffffffffffffff160217905550831561089e5760018560000160086101000a81548160ff0219169083151502179055505b6108a786610de6565b6108af610dfa565b600160028190555083156109135760008560000160086101000a81548160ff0219169083151502179055507fc7f505b2f371ae2175ee4913f4499e1f2633a7b5936321eed1cdaeb6115181d2600160405161090a9190611809565b60405180910390a15b505050505050565b610923610c38565b600073ffffffffffffffffffffffffffffffffffffffff168173ffffffffffffffffffffffffffffffffffffffff16036109955760006040517f1e4fbdf700000000000000000000000000000000000000000000000000000000815260040161098c91906114e0565b60405180910390fd5b61099e81610cbf565b50565b7f000000000000000000000000000000000000000000000000000000000000000073ffffffffffffffffffffffffffffffffffffffff163073ffffffffffffffffffffffffffffffffffffffff161480610a4e57507f000000000000000000000000000000000000000000000000000000000000000073ffffffffffffffffffffffffffffffffffffffff16610a35610e04565b73ffffffffffffffffffffffffffffffffffffffff1614155b15610a85576040517fe07c8dba00000000000000000000000000000000000000000000000000000000815260040160405180910390fd5b565b610a8f610c38565b50565b8173ffffffffffffffffffffffffffffffffffffffff166352d1902d6040518163ffffffff1660e01b8152600401602060405180830381865afa925050508015610afa57506040513d601f19601f82011682018060405250810190610af79190611850565b60015b610b3b57816040517f4c9c8ce3000000000000000000000000000000000000000000000000000000008152600401610b3291906114e0565b60405180910390fd5b7f360894a13ba1a3210667c828492db98dca3e2076cc3735a920a3ca505d382bbc60001b8114610ba257806040517faa1d49a4000000000000000000000000000000000000000000000000000000008152600401610b9991906114b6565b60405180910390fd5b610bac8383610e5b565b505050565b7f000000000000000000000000000000000000000000000000000000000000000073ffffffffffffffffffffffffffffffffffffffff163073ffffffffffffffffffffffffffffffffffffffff1614610c36576040517fe07c8dba00000000000000000000000000000000000000000000000000000000815260040160405180910390fd5b565b610c40610ece565b73ffffffffffffffffffffffffffffffffffffffff16610c5e6106ce565b73ffffffffffffffffffffffffffffffffffffffff1614610cbd57610c81610ece565b6040517f118cdaa7000000000000000000000000000000000000000000000000000000008152600401610cb491906114e0565b60405180910390fd5b565b6000610cc9610d96565b905060008160000160009054906101000a900473ffffffffffffffffffffffffffffffffffffffff169050828260000160006101000a81548173ffffffffffffffffffffffffffffffffffffffff021916908373ffffffffffffffffffffffffffffffffffffffff1602179055508273ffffffffffffffffffffffffffffffffffffffff168173ffffffffffffffffffffffffffffffffffffffff167f8be0079c531659141344cd1fd0a4f28419497f9722a3daafe3b4186f6b6457e060405160405180910390a3505050565b60007f9016d09d72d40fdae2fd8ceac6b6234c7706214fd39c1cd1e609a0528c199300905090565b60007ff0c57e16840df040f15088dc2f81fe391c3923bec73e23a9662efc9c229c6a00905090565b610dee610ed6565b610df781610f16565b50565b610e02610ed6565b565b6000610e327f360894a13ba1a3210667c828492db98dca3e2076cc3735a920a3ca505d382bbc60001b610f9c565b60000160009054906101000a900473ffffffffffffffffffffffffffffffffffffffff16905090565b610e6482610fa6565b8173ffffffffffffffffffffffffffffffffffffffff167fbc7cd75a20ee27fd9adebab32041f755214dbc6bffa90cc0225b39da2e5c2d3b60405160405180910390a2600081511115610ec157610ebb8282611073565b50610eca565b610ec96110f7565b5b5050565b600033905090565b610ede611134565b610f14576040517fd7e6bcf800000000000000000000000000000000000000000000000000000000815260040160405180910390fd5b565b610f1e610ed6565b600073ffffffffffffffffffffffffffffffffffffffff168173ffffffffffffffffffffffffffffffffffffffff1603610f905760006040517f1e4fbdf7000000000000000000000000000000000000000000000000000000008152600401610f8791906114e0565b60405180910390fd5b610f9981610cbf565b50565b6000819050919050565b60008173ffffffffffffffffffffffffffffffffffffffff163b0361100257806040517f4c9c8ce3000000000000000000000000000000000000000000000000000000008152600401610ff991906114e0565b60405180910390fd5b8061102f7f360894a13ba1a3210667c828492db98dca3e2076cc3735a920a3ca505d382bbc60001b610f9c565b60000160006101000a81548173ffffffffffffffffffffffffffffffffffffffff021916908373ffffffffffffffffffffffffffffffffffffffff16021790555050565b60606000808473ffffffffffffffffffffffffffffffffffffffff168460405161109d91906118c4565b600060405180830381855af49150503d80600081146110d8576040519150601f19603f3d011682016040523d82523d6000602084013e6110dd565b606091505b50915091506110ed858383611154565b9250505092915050565b6000341115611132576040517fb398979f00000000000000000000000000000000000000000000000000000000815260040160405180910390fd5b565b600061113e610dbe565b60000160089054906101000a900460ff16905090565b60608261116957611164826111e3565b6111db565b60008251148015611191575060008473ffffffffffffffffffffffffffffffffffffffff163b145b156111d357836040517f9996b3150000000000000000000000000000000000000000000000000000000081526004016111ca91906114e0565b60405180910390fd5b8190506111dc565b5b9392505050565b6000815111156111f65780518082602001fd5b6040517f1425ea4200000000000000000000000000000000000000000000000000000000815260040160405180910390fd5b6000604051905090565b600080fd5b600080fd5b600073ffffffffffffffffffffffffffffffffffffffff82169050919050565b60006112678261123c565b9050919050565b6112778161125c565b811461128257600080fd5b50565b6000813590506112948161126e565b92915050565b6000602082840312156112b0576112af611232565b5b60006112be84828501611285565b91505092915050565b6000819050919050565b6112da816112c7565b82525050565b60006020820190506112f560008301846112d1565b92915050565b600080fd5b600080fd5b6000601f19601f8301169050919050565b7f4e487b7100000000000000000000000000000000000000000000000000000000600052604160045260246000fd5b61134e82611305565b810181811067ffffffffffffffff8211171561136d5761136c611316565b5b80604052505050565b6000611380611228565b905061138c8282611345565b919050565b600067ffffffffffffffff8211156113ac576113ab611316565b5b6113b582611305565b9050602081019050919050565b82818337600083830152505050565b60006113e46113df84611391565b611376565b905082815260208101848484011115611400576113ff611300565b5b61140b8482856113c2565b509392505050565b600082601f830112611428576114276112fb565b5b81356114388482602086016113d1565b91505092915050565b6000806040838503121561145857611457611232565b5b600061146685828601611285565b925050602083013567ffffffffffffffff81111561148757611486611237565b5b61149385828601611413565b9150509250929050565b6000819050919050565b6114b08161149d565b82525050565b60006020820190506114cb60008301846114a7565b92915050565b6114da8161125c565b82525050565b60006020820190506114f560008301846114d1565b92915050565b600081519050919050565b600082825260208201905092915050565b60005b8381101561153557808201518184015260208101905061151a565b60008484015250505050565b600061154c826114fb565b6115568185611506565b9350611566818560208601611517565b61156f81611305565b840191505092915050565b600060208201905081810360008301526115948184611541565b905092915050565b6115a5816112c7565b81146115b057600080fd5b50565b6000813590506115c28161159c565b92915050565b6000602082840312156115de576115dd611232565b5b60006115ec848285016115b3565b91505092915050565b7f55736572206e6f74207265676973746572656400000000000000000000000000600082015250565b600061162b601383611506565b9150611636826115f5565b602082019050919050565b6000602082019050818103600083015261165a8161161e565b9050919050565b7f4e6577206164647265737320616c726561647920726567697374657265640000600082015250565b6000611697601e83611506565b91506116a282611661565b602082019050919050565b600060208201905081810360008301526116c68161168a565b9050919050565b7f5573657220616c72656164792072656769737465726564000000000000000000600082015250565b6000611703601783611506565b915061170e826116cd565b602082019050919050565b60006020820190508181036000830152611732816116f6565b9050919050565b7f4e487b7100000000000000000000000000000000000000000000000000000000600052601160045260246000fd5b6000611773826112c7565b91507fffffffffffffffffffffffffffffffffffffffffffffffffffffffffffffffff82036117a5576117a4611739565b5b600182019050919050565b6000819050919050565b600067ffffffffffffffff82169050919050565b6000819050919050565b60006117f36117ee6117e9846117b0565b6117ce565b6117ba565b9050919050565b611803816117d8565b82525050565b600060208201905061181e60008301846117fa565b92915050565b61182d8161149d565b811461183857600080fd5b50565b60008151905061184a81611824565b92915050565b60006020828403121561186657611865611232565b5b60006118748482850161183b565b91505092915050565b600081519050919050565b600081905092915050565b600061189e8261187d565b6118a88185611888565b93506118b8818560208601611517565b80840191505092915050565b60006118d08284611893565b91508190509291505056fea26469706673582212201ddd4546176b349d3f19e031cc4b96122caa6870c4a550bbb74ce2c4204fd5b964736f6c63430008180033",
    "linkReferences": {},
    "deployedLinkReferences": {}
}